:020000040800F2
:10000000241D0020C9060008490700084907000808
:1000100049070008490700084907000800000000D8
:100020000000000000000000000000004907000878
:10003000490700080000000049070008AD02000859
:100040004907000849070008490700084907000850
:100050004907000849070008490700084907000840
:100060004907000849070008490700084907000830
:100070004907000849070008490700084907000820
:100080004907000849070008490700084907000810
:100090004907000849070008490700084907000800
:1000A00049070008490700084907000849070008F0
:1000B0004907000849070008D9190008490700083E
:1000C00049070008490700084907000849070008D0
:1000D000490700089D3D0008E53D00082D3E000849
:1000E00049070008490700084907000849070008B0
:1000F00049070008490700084907000849070008A0
:10010000490700084907000849070008490700088F
:10011000753E0008BD3E0008490700084907000871
:10012000490700084907000849070008490700086F
:10013000490700084907000849070008490700085F
:10014000490700084907000849070008490700084F
:10015000490700084907000849070008053F00084B
:10016000490700084907000849070008490700082F
:10017000490700084907000849070008490700081F
:10018000490700084907000880B483B000AF034660
:100190003960FB7197F90730002B10DA4FF46D438B
:1001A000CEF20003FA7902F00F02A2F104013A68DC
:1001B000D2B24FEA0212D2B25B181A760DE04FF4B7
:1001C0006143CEF2000397F907103A68D2B24FEAC2
:1001D0000212D2B25B1883F8002307F10C07BD4668
:1001E00080BC704780B582B000AF78607A686FF0ED
:1001F0007F439A4202D94FF001031FE04EF21003F1
:10020000CEF200037A6822F07F4202F1FF325A6098
:100210004FF0FF304FF00F01FFF7B6FF4EF2100323
:10022000CEF200034FF000029A604EF21003CEF2BD
:1002300000034FF007021A604FF00003184607F161
:100240000807BD4680BD00BF80B485B000AF7860B0
:1002500040F6E803C2F200031A687B68D318FB601B
:1002600000BF40F6E803C2F200031A68FB689A4236
:10027000F7D307F11407BD4680BC704780B500AFC7
:1002800040F21003C2F200031A6844F6D353C1F2DD
:100290006203A3FB02134FEA93131846FFF7A2FF72
:1002A0000346002B00D0FEE780BD00BF80B400AF46
:1002B00040F6E803C2F200031B6803F1010240F6B6
:1002C000E803C2F200031A60BD4680BC704700BF5D
:1002D00080B400AF40F6E803C2F200031B68184682
:1002E000BD4680BC704700BF80B58AB000AF786063
:1002F00039604FF000037B624FF000033B624FF028
:100300000003FB614FF00003BB617B681B8A9BB25B
:100310007B627B6A23F440537B623B68DB887A6AAA
:1003200013437B627B6A9AB27B681A827B689B89E3
:100330009BB27B627B6A23F4B05323F00C037B6295
:100340003B689A883B681B8913439AB23B685B8978
:1003500013439BB27A6A13437B627B6A9AB27B68CF
:100360009A817B689B8A9BB27B627B6A23F4407391
:100370007B623B689B897A6A13437B627B6A9AB291
:100380007B689A8207F10803184602F0DBF87A6866
:100390004FF48053C4F201039A4206D07A684FF4B6
:1003A000A053C4F201039A4202D17B693B6201E08F
:1003B0003B693B627B689B899BB29BB21BB2002B63
:1003C0000FDA3A6A13464FEA83039B184FEA830217
:1003D0009A183B681B684FEA4303B2FBF3F3FB61D7
:1003E0000EE03A6A13464FEA83039B184FEA8302F2
:1003F0009A183B681B684FEA8303B2FBF3F3FB6177
:10040000FA6948F21F53C5F2EB13A3FB02134FEA3C
:1004100053134FEA03137B627B6A4FEA13134FF0C7
:10042000640202FB03F3FA69D31ABB617B689B8900
:100430009BB29BB21BB2002B12DABB694FEAC3031B
:1004400003F1320248F21F53C5F2EB13A3FB021370
:100450004FEA531303F007037A6A13437B6211E0F8
:10046000BB694FEA031303F1320248F21F53C5F28E
:10047000EB13A3FB02134FEA531303F00F037A6A43
:1004800013437B627B6A9AB27B681A8107F1280763
:10049000BD4680BD80B483B000AF78600B46FB7072
:1004A000FB78002B08D07B689B899BB243F40053F8
:1004B0009AB27B689A8107E07B689B899BB223F4A0
:1004C00000539AB27B689A8107F10C07BD4680BC45
:1004D000704700BF80B483B000AF78600B467B806C
:1004E0007B884FEAC3534FEAD3539AB27B689A8012
:1004F00007F10C07BD4680BC704700BF80B483B0D5
:1005000000AF78607B689B889BB24FEAC3534FEA89
:10051000D3539BB2184607F10C07BD4680BC704709
:1005200080B487B000AF786013460A467A807B704B
:100530004FF000033B614FF00003FB604FF00003FE
:10054000BB604FF000037B617B687B617B88DBB223
:100550004FEA5313DBB23B617B8803F01F03FB6060
:10056000FB684FF0010202FA03F3BB603B69012B09
:1005700004D17B6903F10C037B610BE03B69022B27
:1005800004D17B6903F110037B6103E07B6903F114
:1005900014037B617B78002B06D07B697A69116834
:1005A000BA680A431A6007E07B697A691168BA6819
:1005B0006FEA02020A401A6007F11C07BD4680BCC0
:1005C000704700BF80B485B000AF78600B467B8079
:1005D0004FF00003FB737B681B889AB27B88134043
:1005E0009BB2002B03D04FF00103FB7302E04FF0EE
:1005F0000003FB73FB7B184607F11407BD4680BC64
:10060000704700BF80B487B000AF78600B467B8036
:100610004FF00003FB604FF000037B614FF00003DD
:10062000BB604FF00003FB747B88DBB24FEA5313CF
:10063000DBB2BB607B8803F01F037B617B694FF0FB
:10064000010202FA03F37B61BB68012B06D17B68D0
:100650009B899BB27A6913407B610FE0BB68022BD8
:1006600006D17B681B8A9BB27A6913407B6105E0E7
:100670007B689B8A9BB27A6913407B617B884FEAD7
:1006800013239BB2FB60FB684FF0010202FA03F3F5
:10069000FB607B681B889BB2FA681340FB607B6938
:1006A000002B06D0FB68002B03D04FF00103FB7436
:1006B00002E04FF00003FB74FB7C184607F11C07B7
:1006C000BD4680BC704700BF80B582B000AF4DF220
:1006D000C423C0F601037B6040F20003C2F20003B2
:1006E0003B600BE07B681A683B681A603B6803F16B
:1006F00004033B607B6803F104037B603A6840F6C7
:10070000E803C2F200039A42ECD30C480C494FF0C4
:1007100000028842B8BF40F8042BFFF6FAAFDFF8BA
:100720002400016841F47001016003F0F7F800F063
:10073000F5FA07F10807BD4680BD0000E808002073
:100740002815002088ED00E080B400AFFEE700BF70
:1007500090B583B000AF7860786801F0F7F94FF09A
:10076000060004F0C5FD03461C4620464FF000017C
:100770004FF0010240F2FF3301F0F4F97B681C6096
:100780004FF0060004F0B4FD03461C4620464FF02F
:1007900001014FF0010240F2FF3301F0E3F97B6801
:1007A0005C604FF0060004F0A3FD03461C462046A3
:1007B0004FF002014FF0010240F2FF3301F0D2F995
:1007C0007B689C604FF0060004F092FD03461C46D7
:1007D00020464FF003014FF0010240F2FF3301F0D9
:1007E000C1F97B68DC604FF0060004F081FD034630
:1007F0001C4620464FF004014FF0010240F2FF3347
:1008000001F0B0F97B681C614FF0060004F070FD48
:1008100003461C4620464FF005014FF0010240F20E
:10082000FF3301F09FF97B685C614FF0060004F034
:100830005FFD03461C4620464FF006014FF00102C3
:1008400040F2FF3301F08EF97B689C614FF00600A7
:1008500004F04EFD03461C4620464FF007014FF0C2
:10086000010240F2FF3301F07DF97B68DC614FF05B
:10087000060004F03DFD03461C4620464FF00801EB
:100880004FF0010240F2FF3301F06CF97B681C620B
:100890004FF0060004F02CFD03461C4620464FF0A6
:1008A00009014FF0010240F2FF3301F05BF97B6870
:1008B0005C624FF0060004F01BFD03461C46204618
:1008C0004FF00A014FF0010240F2FF3301F04AF904
:1008D0007B689C624FF0060004F00AFD03461C464C
:1008E00020464FF00B014FF0010240F2FF3301F0C0
:1008F00039F97B68DC627B683BE0204604F0E4FB6E
:1009000004F0BCFA204604F0DFFB04F0B7FA2046FE
:1009100004F0DAFB04F0B2FA204604F0D5FB04F050
:10092000ADFA204604F0D0FB04F0A8FA204604F00B
:10093000CBFB04F0A3FA204604F0C6FB04F09EFAB9
:10094000204604F0C1FB04F099FA204604F0BCFBF9
:1009500004F094FA204604F0B7FB04F08FFA204626
:1009600004F0B2FB04F08AFA204604F0ADFB04F078
:1009700085FA184607F10C07BD4690BD80B582B0D8
:1009800000AF78607B681B6818464FF0500101F09B
:1009900009F907F10807BD4680BD00BF80B582B0E8
:1009A00000AF78607B681B6818464FF0E60101F0E5
:1009B000F9F807F10807BD4680BD00BF80B582B0D9
:1009C00000AF78607B685B6818464FF0F00101F07B
:1009D000E9F807F10807BD4680BD00BF80B582B0C9
:1009E00000AF78607B685B6818464FF0410101F00A
:1009F000D9F807F10807BD4680BD00BF80B582B0B9
:100A000000AF78607B689B6818464FF0050101F0E5
:100A1000C9F807F10807BD4680BD00BF80B582B0A8
:100A200000AF78607B689B6818464FF0CB0101F0FF
:100A3000B9F807F10807BD4680BD00BF80B582B098
:100A400000AF78607B68DB6818464FF4967101F060
:100A5000A9F807F10807BD4680BD00BF80B582B088
:100A600000AF78607B68DB6818464FF0620101F0E8
:100A700099F807F10807BD4680BD00BF80B483B078
:100A800000AF786007F10C07BD4680BC704700BF1F
:100A900080B483B000AF786007F10C07BD4680BC1E
:100AA000704700BF80B483B000AF786007F10C07D7
:100AB000BD4680BC704700BF80B483B000AF786093
:100AC00007F10C07BD4680BC704700BF80B582B0FF
:100AD00000AF78607B681B6918464FF01E0101F07B
:100AE00061F807F10807BD4680BD00BF80B582B040
:100AF00000AF78607B681B6918464FF0400101F039
:100B000051F807F10807BD4680BD00BF80B582B02F
:100B100000AF78607B681B6918464FF0360101F022
:100B200041F807F10807BD4680BD00BF80B582B01F
:100B300000AF78607B685B6918464FF0B40101F044
:100B400031F807F10807BD4680BD00BF80B582B00F
:100B500000AF78607B685B6918464FF08F0101F049
:100B600021F807F10807BD4680BD00BF80B582B0FF
:100B700000AF78607B685B6918464FF0990101F01F
:100B800011F807F10807BD4680BD00BF80B582B0EF
:100B900000AF78607B689B6918464FF0D30101F085
:100BA00001F807F10807BD4680BD00BF80B582B0DF
:100BB00000AF78607B689B6918464FF0960100F0A3
:100BC000F1FF07F10807BD4680BD00BF80B582B0C8
:100BD00000AF78607B68DB6918464FF0A00100F039
:100BE000E1FF07F10807BD4680BD00BF80B582B0B8
:100BF00000AF78607B68DB6918464FF0DE0100F0DB
:100C0000D1FF07F10807BD4680BD00BF80B582B0A7
:100C100000AF78607B681B6A18464FF0410100F016
:100C2000C1FF07F10807BD4680BD00BF80B582B097
:100C300000AF78607B681B6A18464FF05A0100F0DD
:100C4000B1FF07F10807BD4680BD00BF80B582B087
:100C500000AF78607B681B6A18464FF0940100F083
:100C6000A1FF07F10807BD4680BD00BF80B582B077
:100C700000AF78607B685B6A18464FF0ED0100F0CA
:100C800091FF07F10807BD4680BD00BF80B582B067
:100C900000AF78607B685B6A18464FF0CF0100F0C8
:100CA00081FF07F10807BD4680BD00BF80B582B057
:100CB00000AF78607B685B6A18464FF0980100F0DF
:100CC00071FF07F10807BD4680BD00BF80B483B047
:100CD00000AF786007F10C07BD4680BC704700BFCD
:100CE00080B483B000AF786007F10C07BD4680BCCC
:100CF000704700BF80B483B000AF786007F10C0785
:100D0000BD4680BC704700BF80B483B000AF786040
:100D100007F10C07BD4680BC704700BFB0B5CAB034
:100D200002AFFFF7ABFA4FF4E13000F05BFF01F0E8
:100D30001DF80346C7F81C31D7F81C0101F06EFFFF
:100D40004FF4165001F04AF83B461846FFF700FDF5
:100D500000E000BF01F006F90346002BF9D007F1CF
:100D6000300318464FF0000101F016F907F1300387
:100D70004BF21000C0F60100194613F0A3FA034627
:100D8000002B06D14BF21400C0F6010001F062F90D
:100D9000DFE707F130034BF21800C0F601001946F7
:100DA00013F090FA0346002B31D140F60413C2F23F
:100DB00000031B78D7F81C01194602F041F84BF2EA
:100DC0001C00C0F6010001F045F940F60413C2F220
:100DD00000031B78002B06D04BF24400C0F6010044
:100DE00001F038F905E04BF25C00C0F6010001F0BB
:100DF00031F940F60413C2F200031B7883F00103BB
:100E0000DAB240F60413C2F200031A70A1E707F148
:100E100030034BF27800C0F60100194613F052FA85
:100E20000346002B31D140F60513C2F200031B78B4
:100E3000D7F81C01194602F011F84BF27C00C0F6FD
:100E4000010001F007F940F60513C2F200031B7818
:100E5000002B06D04BF2A000C0F6010001F0FAF81A
:100E600005E04BF2B400C0F6010001F0F3F840F6E3
:100E70000513C2F200031B7883F00103DAB240F6D7
:100E80000513C2F200031A7063E707F130034BF257
:100E9000CC00C0F60100194613F014FA0346002BEB
:100EA0003FF457AF07F130034BF2D000C0F601001A
:100EB000194613F007FA0346002B2ED1D7F81C0170
:100EC00002F08EFB0346184610F0DAFB04460D468E
:100ED000D7F81C0102F092FB0346184610F0D0FB35
:100EE00002460B46CDE900234BF2D400C0F60100C8
:100EF00022462B4601F0AEF8D7F81C0102F03CFB6D
:100F00000346184610F0BCFB02460B464BF2DC00D1
:100F1000C0F6010001F09EF81BE707F130034BF229
:100F2000E000C0F60100194613F0CCF90346002B8F
:100F30002AD103F093FC03464BF2E800C0F601000F
:100F4000194601F087F803F099FC03464BF2E800DC
:100F5000C0F60100194601F07DF8D7F81C31D3F82E
:100F60008C304BF2E800C0F60100194601F072F82F
:100F7000D7F81C31D3F890304BF2E800C0F60100EE
:100F8000194601F067F8E4E607F130034BF2EC0094
:100F9000C0F60100194613F095F90346002B18D14D
:100FA000D7F81C0101F0F2FE03464BF2F000C0F648
:100FB0000100194601F04EF8D7F81C0101F0F2FECD
:100FC00003464BF21410C0F60100194601F042F836
:100FD000BFE607F130034BF23810C0F601001946A6
:100FE00013F070F90346002B1BD14FF00003C7F834
:100FF000103107F5887318464FF0000101F04CF8E6
:10100000D7F810314BF23C10C0F60100194601F040
:1010100021F8D7F81031D7F81C01194602F0B4F9BD
:1010200097E607F130034BF25010C0F60100194665
:1010300013F048F90346002B22D1D7F81C0102F027
:101040009BFA0346C7F80C3107F5867318464FF034
:10105000000101F041F8D7F80C31184610F010FBF0
:1010600002460B464BF25410C0F6010000F0F2FFAE
:10107000D7F80C31D7F81C01194602F0B9F968E627
:1010800007F130034BF26C10C0F60100194613F063
:1010900019F90346002B26D107F58A7318464FF03D
:1010A000000100F041FDD7F81C0197F814114FF032
:1010B0005A0202F0D5F907F58C7318464FF001017A
:1010C00000F032FDD7F81C0197F818114FF05A02C2
:1010D00002F0C6F94FF4FA70FFF7B6F8D7F81C0122
:1010E00002F0ECF935E607F130034BF27810C0F668
:1010F0000100194613F0E6F80346002B18D1D7F883
:101100001C0101F00FFE03464BF27C10C0F60100FB
:10111000194600F09FFFD7F81C0101F011FE0346AD
:101120004BF28C10C0F60100194600F093FF10E658
:1011300007F130034BF2A010C0F60100194613F07E
:10114000C1F80346002B0CD14BF2A410C0F60100ED
:1011500000F080FFD7F81C014FF0640101F02EFE73
:10116000F7E507F130034BF2CC10C0F60100194649
:1011700013F0A8F80346002B0CD14BF2D010C0F6A8
:10118000010000F067FFD7F81C014FF0640101F087
:1011900025FEDEE507F130034BF2F810C0F6010042
:1011A000194613F08FF80346002B12D14BF2FC10B6
:1011B000C0F6010000F04EFFD7F81C014FF06401AB
:1011C00001F0FCFDD7F81C014FF0640101F006FEB0
:1011D000BFE507F130034BF22420C0F601001946A9
:1011E00013F070F80346002B17D107F584731846E7
:1011F0004FF0000100F096FFD7F808314BF228209D
:10120000C0F60100194600F025FFD7F80831D7F8DD
:101210001C01194601F0D2FD9BE507F130034BF2AA
:101220005020C0F60100194613F04CF80346002B7D
:1012300017D107F5827318464FF0000100F072FFD6
:10124000D7F804314BF25420C0F60100194600F0E3
:1012500001FFD7F80431D7F81C01194601F0BEFD93
:1012600077E507F130034BF27C20C0F60100194608
:1012700013F028F80346002B1ED107F5807318469B
:101280004FF0000100F04EFFD7F800314BF2802004
:10129000C0F60100194600F0DDFED7F80031D7F89E
:1012A0001C01194601F08AFDD7F80031D7F81C015E
:1012B000194601F093FD4CE507F130034BF2A820ED
:1012C000C0F60100194612F0FDFF0346002B24D1A1
:1012D000D7F81C0101F042FD03461A46D7F81C312D
:1012E000D3F88C304BF2AC20C0F6010011461A4600
:1012F00000F0B0FED7F81C0101F03CFD03461A4691
:10130000D7F81C31D3F890304BF2D820C0F601004A
:1013100011461A4600F09EFE1BE507F130034BF222
:101320000430C0F60100194612F0CCFF0346002B32
:1013300049D14BF20830C0F6010000F08BFE07F1F6
:10134000FC0318464FF0000100F0C6FED7F8FC3051
:10135000184610F095F902460B464BF20C30C0F6D9
:10136000010000F077FE4FF0000387F81B3197F87B
:101370001B31002B13D0D7F8FC30D7F81C011946CD
:101380004FF000024FF0000302F0CCF8D7F81C0138
:101390004FF61841CFF6FF7101F0F6FFD9E4D7F808
:1013A000FC30D7F81C0119464FF000024FF0000343
:1013B00002F0CCF8D7F81C0140F6DB71C4F2490109
:1013C00002F016F8C5E407F130034BF21430C0F612
:1013D0000100194612F076FF0346002B47D14BF26D
:1013E0001830C0F6010000F035FE07F1F80318468A
:1013F0004FF0000100F070FED7F8F830184610F0FA
:101400003FF902460B464BF21C30C0F6010000F0DB
:1014100021FE4FF0010387F81A3197F81A31002B9B
:1014200012D0D7F8F830D7F81C014FF07F514FF0A9
:10143000000202F077F8D7F81C014FF61841CFF6FA
:10144000FF7101F0A1FF84E4D7F8F830D7F81C0150
:101450004FF07E514FF0000202F078F8D7F81C01EF
:1014600040F6DB71C4F2490101F0C2FF71E407F1FB
:1014700030034BF22430C0F60100194612F022FF6F
:101480000346002B04D13B461846FFF7B7FA60E449
:1014900007F130034BF22830C0F60100194612F074
:1014A00011FF0346002B04D13B461846FFF7B6FA5E
:1014B0004FE407F130034BF22C30C0F6010019461F
:1014C00012F000FF0346002B04D13B461846FFF7FD
:1014D000B5FA3EE407F130034BF23030C0F60100BC
:1014E000194612F0EFFE0346002B04D13B46184686
:1014F000FFF7B4FA2DE407F130034BF23430C0F6B5
:101500000100194612F0DEFE0346002B04D13B46D3
:101510001846FFF7B3FA1CE407F130034BF23C30F6
:10152000C0F60100194612F0CDFE0346002B04D18F
:101530003B461846FFF7ACFA0BE407F130034BF2D9
:101540004430C0F60100194612F0BCFE0346002BE1
:1015500005D13B461846FFF7A5FAFFF7FABB07F19E
:1015600030034BF24C30C0F60100194612F0AAFECF
:101570000346002B05D13B461846FFF79DFAFFF7BF
:10158000E8BB07F130034BF25430C0F601001946B6
:1015900012F098FE0346002B05D13B461846FFF794
:1015A000EDF9FFF7D6BB07F130034BF25830C0F628
:1015B0000100194612F086FE0346002B05D13B467A
:1015C0001846FFF7EBF9FFF7C4BB07F130034BF206
:1015D0005C30C0F60100194612F074FE0346002B81
:1015E00005D13B461846FFF7E9F9FFF7B2BB07F113
:1015F00030034BF26030C0F60100194612F062FE73
:101600000346002B05D13B461846FFF7E7F9FFF7E5
:10161000A0BB07F130034BF26430C0F6010019465D
:1016200012F050FE0346002B09D13B461846FFF747
:10163000C5F93B461846FFF7A1F9FFF78ABB07F14A
:1016400030034BF26830C0F60100194612F03AFE42
:101650000346002B09D13B461846FFF7BFF93B462E
:101660001846FFF79BF9FFF774BB07F130034BF205
:101670006C30C0F60100194612F024FE0346002B20
:1016800005D13B461846FFF721FBFFF762BB07F188
:1016900030034BF27030C0F60100194612F012FE12
:1016A0000346002B05D13B461846FFF719FBFFF711
:1016B00050BB07F130034BF27430C0F601001946FD
:1016C00012F000FE0346002B05D13B461846FFF7FB
:1016D00011FBFFF73EBB07F130034BF27830C0F649
:1016E0000100194612F0EEFD0346002B05D13B46E2
:1016F0001846FFF709FBFFF72CBB07F130034BF24D
:101700007C30C0F60100194612F0DCFD0346002BC8
:1017100005D13B461846FFF7D9F9FFF71ABB07F189
:1017200030034BF28030C0F60100194612F0CAFDBA
:101730000346002B05D13B461846FFF7D7F9FFF7C4
:1017400008BB07F130034BF28430C0F601001946A4
:1017500012F0B8FD0346002B05D13B461846FFF7B3
:10176000D5F9FFF7F6BA07F130034BF28830C0F62F
:101770000100194612F0A6FD0346002B05D13B4699
:101780001846FFF7D3F9FFF7E4BA07F130034BF23D
:101790008C30C0F60100194612F094FD0346002B70
:1017A00005D13B461846FFF7D1F9FFF7D2BA07F14A
:1017B00030034BF29030C0F60100194612F082FD62
:1017C0000346002B05D13B461846FFF7CFF9FFF73C
:1017D000C0BA07F130034BF29430C0F6010019464D
:1017E00012F070FD0346002B09D13B461846FFF767
:1017F0009DF93B461846FFF769F9FFF7AABA07F1CA
:1018000030034BF29830C0F60100194612F05AFD31
:101810000346002B09D13B461846FFF797F93B4694
:101820001846FFF763F9FFF794BA07F130034BF25C
:101830009C30C0F60100194612F044FD0346002B0F
:1018400009D13B461846FFF791F93B461846FFF78A
:101850005DF9FFF77EBA07F130034BF2A030C0F616
:101860000100194612F02EFD0346002B05D13B4620
:101870001846FFF78BF9FFF76CBA07F130034BF20C
:10188000A430C0F60100194612F01CFD0346002BDF
:1018900005D13B461846FFF789F9FFF75ABA07F119
:1018A00030034BF2A830C0F60100194612F00AFDD1
:1018B0000346002B05D13B461846FFF787F9FFF793
:1018C00048BA07F130034BF2AC30C0F601001946BC
:1018D00012F0F8FC0346002B05D13B461846FFF7F3
:1018E00085F9FFF736BA07F130034BF2B030C0F696
:1018F0000100194612F0E6FC0346002B05D13B46D9
:101900001846FFF783F9FFF724BA07F130034BF2CB
:10191000B430C0F60100194612F0D4FC0346002B87
:1019200005D13B461846FFF781F9FFF712BA07F1D8
:1019300030034BF2B830C0F60100194612F0C2FC79
:101940000346002B05D13B461846FFF77FF9FFF70A
:1019500000BA07F130034BF2BC30C0F60100194663
:1019600012F0B0FC0346002B05D13B461846FFF7AA
:101970007DF9FFF7EEB907F130034BF2C030C0F646
:101980000100194612F09EFC0346002B05D13B4690
:101990001846FFF77BF9FFF7DCB907F130034BF28C
:1019A000C430C0F60100194612F08CFC0346002B2F
:1019B0007FF4CFA93B461846FFF778F9FFF7C9B97E
:1019C00008E007E006E005E004E003E002E001E0F3
:1019D00000E0FFE703F052FA90B583B000AF40F6A5
:1019E000F803C2F200031B6803F00103002B1ED1B1
:1019F00040F6F800C2F2000003F016FB0346002B8D
:101A00000CBF00230123DBB2002B10D04FF00004E9
:101A100000F0ACF903461A4640F6FC03C2F200039C
:101A20001A6040F6F800C2F2000003F01DFB4FF40C
:101A30000060C4F200004FF0010103F093F9034687
:101A4000002B0CBF00230123DBB2002B5AD04FF434
:101A50000060C4F200004FF0010103F0B3F940F65A
:101A6000FC03C2F200031B68184601F005FA40F6B9
:101A7000FC03C2F200031B68184601F031FB40F67C
:101A80000013C2F200031A684EF65F239A4294BF15
:101A900000230123DBB2002B1DD040F6FC03C2F271
:101AA00000031B68184601F04DFA03467B607B6813
:101AB000002B09D07B68032B06D04BF2C830C0F650
:101AC0000100796800F0C6FA40F60013C2F2000384
:101AD0004FF000021A6040F60013C2F200031B68C8
:101AE00003F1010240F60013C2F200031A600AE09B
:101AF000002C05D140F6F800C2F2000003F0B0FA65
:101B000003F0BCF900BF07F10C07BD4690BD00BF54
:101B100080B483B000AF78607B68184607F10C078B
:101B2000BD4680BC704700BF80B582B000AF786012
:101B30000B46FB707868FFF7EBFF7B68FA781A704A
:101B40007B68184607F10807BD4680BD80B483B0A6
:101B500000AF78607B68184607F10C07BD4680BC73
:101B6000704700BF80B584B000AFF860F9723A8169
:101B7000FB8000F0F7FAFB68FA7A1A70FB683A8982
:101B80005A80FB68FA889A803A89FB88F86811467F
:101B90001A4600F003FBFB68184607F11007BD4624
:101BA00080BD00BF80B582B000AF78600B467B80FF
:101BB0007A8813464FEA83239A1A48F2B513C1F67E
:101BC0004E33A3FB02134FEA53139BB278684FF0D6
:101BD0001E014FF0020200F00FFB07F10807BD469F
:101BE00080BD00BF80B582B000AF786040F654136E
:101BF000C2F200034FF002021A7140F65413C2F20F
:101C000000034FF002025A7140F65413C2F200036F
:101C10004FF000029A7140F65413C2F200034FF0E5
:101C20000102DA714FF010004FF0010100F0C4FD25
:101C30004FF002004FF0010100F06AFD40F654132E
:101C4000C2F200034FF0C0021A604FF48060C4F289
:101C5000020040F65411C2F2000101F02FFD4FF4D2
:101C60008060C4F202004FF006014FF0070201F05D
:101C700001FE4FF48060C4F202004FF007014FF004
:101C8000070201F0F7FD40F66C13C2F200034FF0BB
:101C900025021A7000BF40F65C13C2F200037A6896
:101CA0001A6040F65C13C2F200034FF000029A8003
:101CB00040F65C13C2F200034FF00002DA8040F6F7
:101CC0005C13C2F200034FF000021A8140F65C136D
:101CD000C2F200034FF000029A8140F65C13C2F298
:101CE00000034FF00C025A8140F22403C2F20003B9
:101CF0001B68184640F65C11C2F20001FEF7F4FAC8
:101D000040F22403C2F200031B68184640F225513A
:101D10004FF00102FEF704FC40F66C13C2F2000320
:101D20004FF000025A7040F66C13C2F200034FF0FD
:101D300000029A7040F66C13C2F200034FF00102E9
:101D4000DA7040F66C10C2F2000001F0B5FF40F20C
:101D50002403C2F200031B6818464FF00101FEF78E
:101D600099FB07F10807BD4680BD00BF98B500AFDD
:101D700040F60813C2F200031B6803F00103002BB6
:101D80001BD140F60810C2F2000003F04DF90346E3
:101D9000002B0CBF00230123DBB2002B0DD04FF032
:101DA000000440F68C10C2F2000000F0BFFE40F6C6
:101DB0000810C2F2000003F057F940F68C13C2F28B
:101DC000000309E0002C05D140F60810C2F2000023
:101DD00003F046F903F052F8184698BD80B582B07A
:101DE00000AF786040F67013C2F200034FF00202B9
:101DF0001A7140F67013C2F200034FF002025A71DA
:101E000040F67013C2F200034FF000029A7140F6E0
:101E10007013C2F200034FF00102DA714FF4003088
:101E20004FF0010100F09EFC4FF001004FF0010166
:101E300000F06EFC40F67013C2F200034FF00C028B
:101E40001A604FF00000C4F2020040F67011C2F2B6
:101E5000000101F033FC4FF00000C4F202004FF02B
:101E600002014FF0070201F005FD4FF00000C4F23F
:101E700002004FF003014FF0070201F0FBFC40F6B7
:101E80008813C2F200034FF026021A7000BF40F61A
:101E90007813C2F200037A681A6040F67813C2F22F
:101EA00000034FF000029A8040F67813C2F200035C
:101EB0004FF00002DA8040F67813C2F200034FF0D0
:101EC00000021A8140F67813C2F200034FF00002BC
:101ED0009A8140F67813C2F200034FF00C025A8147
:101EE00040F22803C2F200031B68184640F678113E
:101EF000C2F20001FEF7F8F940F22803C2F2000333
:101F00001B68184640F225514FF00102FEF708FB0E
:101F100040F68813C2F200034FF000025A7040F6F8
:101F20008813C2F200034FF000029A7040F6881343
:101F3000C2F200034FF00102DA7040F68810C2F2DC
:101F4000000001F0B9FE40F22803C2F200031B6852
:101F500018464FF00101FEF79DFA07F10807BD464C
:101F600080BD00BF80B400AF40F60C13C2F2000386
:101F70001B6C03F1400240F60C13C2F200035B6CD1
:101F8000D31A03F03F03002B0CBF00230123DBB265
:101F90001846BD4680BC704780B584B000AF7860FD
:101FA0000B467B804FF00003FB737B8840F62020BC
:101FB000C2F20000194600F087F90346002B14BF57
:101FC00000230123DBB2002B02D04FF000033CE0E2
:101FD000FB7B002B09D140F62023C2F200031B78C3
:101FE0000D2B02D14FF001032FE0FB7B002B06D11C
:101FF00040F62023C2F200031B780A2B0DD0FB7B96
:102000007A68D21840F62023C2F200031B781370BE
:10201000FB7B03F10103FB7300E000BFFB7B03F1DB
:10202000FF337A68D3181B780D2B0CBF00230123D4
:10203000DBB2002BB9D1FB7B03F1FF337A68D318F5
:102040004FF000021A704FF00103184607F1100715
:10205000BD4680BD0FB480B592B000AF07F1540308
:102060007B6407F1040318464FF040013A6D7B6C26
:1020700015F07CF807F10403184600F08BF900F026
:10208000ADF901E002F0FAFE07F14807BD46BDE8F0
:10209000804004B0704700BF80B584B000AF786066
:1020A0000B467B807B8840F62420C2F20000194654
:1020B000FFF772FF0346FB7340F62420C2F20000D4
:1020C00010F0C0FE02467B681A60FB7B184607F1E1
:1020D0001007BD4680BD00BF80B584B000AF7860FA
:1020E0000B467B807B8840F64C20C2F200001946EC
:1020F000FFF752FF0346FB7340F64C20C2F200008C
:1021000010F09CFE02460B46104619460FF0CEFD1D
:1021100002467B681A60FB7B184607F11007BD4634
:1021200080BD00BF80B584B000AF78600B467B8077
:102130007B8840F63820C2F200001946FFF72CFFDA
:102140000346FB7340F63820C2F2000010F07AFE1E
:1021500002467B681A60FB7B184607F11007BD46F4
:1021600080BD00BF80B500AF40F67813C2F2000317
:102170005B8923F004039AB240F67813C2F200039D
:102180005A8140F22803C2F200031B68184640F649
:102190007811C2F20001FEF7A7F880BD80B582B0C9
:1021A00000AF786013460A467A803B8078684FF02B
:1021B00018014FF001024FF0010300F01DF87B8879
:1021C00078684FF006014FF0020200F015F83B88E6
:1021D00078684FF008014FF0020200F00DF87868BF
:1021E0004FF004014FF001024FF0CF0300F004F86C
:1021F00007F10807BD4680BD2DE9F04F85B000AF5F
:102200007860F970BA703B806B461E46B978F96009
:10221000084602464FF000034FF0010A4FF0000B52
:1022200012EB0A0243EB0B034FEA52704FEAC30969
:1022300040EA09094FEAC208084602464FF0000387
:102240004FF001084FF0000912EB080243EB0903BD
:102250004FEA52704FEAC30505434FEAC2040B46EA
:1022600003F1010303F107034FEAD3034FEAC3036A
:10227000ADEB030D6B4603F10003BB60BB68FA785E
:102280001A703B88DAB2BB685A70BB78012B06D94A
:102290003B884FEA13239BB2DAB2BB689A70BB78D3
:1022A00003F10103DAB2BB68786811464FF003020C
:1022B00000F0A0F8B54602E0B54602F0DFFD07F1F8
:1022C0001407BD46BDE8F08F80B584B000AF7860DC
:1022D0000B467B804FF00003FB814FF000037B73C4
:1022E0007B88002B20D07B881A464FEA4202D21806
:1022F0004FEA8202D3184FEA43037B8014E07B88C5
:10230000002B11D0FA897B889A4202D94FF0000342
:102310003BE07B7B002B03D1FB8903F10103FB81B5
:102320007B7B03F101037B73FFF71CFE034683F005
:102330000103DBB2002BE2D140F60C13C2F2000322
:102340005A6C40F60C13C2F200039B5CDAB27B6855
:102350001A7040F60C13C2F200035B6C03F1010229
:102360004FF03F03C8F200031340002B05DA03F1DE
:10237000FF3363F03F0303F101031A4640F60C13E9
:10238000C2F200035A644FF00103184607F1100728
:10239000BD4680BD90B585B000AF78604FF00003BA
:1023A000FB810AE0FB897A68D3181B78184600F095
:1023B0007DF8FB8903F10103FB81FC89786812F049
:1023C0006FF803469C422CBF00230123DBB2002B95
:1023D000E8D107F11407BD4690BD00BF80B500AF3E
:1023E0004FF00D0000F062F84FF00A0000F05EF8C8
:1023F00080BD00BF80B586B000AFF8607B600B4643
:10240000FB721346BB724FF00003FB754FF0FF00E9
:1024100000F072F84FF0FF0000F06EF8FB681B78D8
:10242000184600F069F8FB7A03F10203DBB21846A4
:1024300000F062F8BB7A184600F05EF8FB681A7884
:10244000FB7AD318DAB2BB7AD318DAB2FB7DD31891
:10245000DBB203F10203FB754FF00003BB7511E023
:10246000BB7D7A68D3181A78FB7DD318FB75BB7DCA
:102470007A68D3181B78184600F03EF8BB7D03F14C
:102480000103BB75BA7DFB7A9A422CBF002301235E
:10249000DBB2002BE4D1FB7D6FEA0303DBB218460D
:1024A00000F02AF807F11807BD4680BD80B582B05C
:1024B00000AF0346FB7140F22403C2F200031A6826
:1024C000FB799BB210461946FEF704F840F224034C
:1024D000C2F200031B6818464FF08001FEF772F845
:1024E0000346002B14BF00230123DBB2002BEDD1E8
:1024F00007F10807BD4680BD80B582B000AF034636
:10250000FB7140F22803C2F200031A68FB799BB208
:1025100010461946FDF7DEFF40F22803C2F2000321
:102520001B6818464FF08001FEF74CF80346002B5D
:1025300014BF00230123DBB2002BEDD107F1080704
:10254000BD4680BD80B489B000AF78604FF0000315
:10255000BB614FF000037B614FF00003FB614FF064
:1025600002033B614FF00003FB604FF00203BB60CE
:102570004FF46053C4F202039B6803F00C03BB6189
:10258000BB69042B0AD0082B0FD0002B60D17A68CE
:102590004FF41053C0F2F403136060E07A684FF414
:1025A0009053C0F27A03136059E04FF46053C4F2C1
:1025B00002035B6803F480034FEA9353FB604FF41C
:1025C0006053C4F202035B6803F03F03BB60FB6827
:1025D000002B14D04FF49053C0F27A03BA68B3FBC7
:1025E000F2F24FF46053C4F20203596847F6C07325
:1025F0000B404FEA931303FB02F3FB6113E04FF42C
:102600001053C0F2F403BA68B3FBF2F24FF4605314
:10261000C4F20203596847F6C0730B404FEA9313A4
:1026200003FB02F3FB614FF46053C4F202035B68E7
:1026300003F440334FEA134303F101034FEA43032A
:102640003B61FA693B69B2FBF3F27B681A6006E012
:102650007A684FF41053C0F2F403136000BF4FF4D4
:102660006053C4F202039B6803F0F003BB61BB69D3
:102670004FEA1313BB6140F20003C2F20003BA69D0
:102680009B181B78DBB27B617B681A687B6922FA36
:1026900003F27B685A604FF46053C4F202039B68F4
:1026A00003F4E053BB61BB694FEA9323BB6140F283
:1026B0000003C2F20003BA699B181B78DBB27B618E
:1026C0007B685A687B6922FA03F27B689A604FF450
:1026D0006053C4F202039B6803F46043BB61BB69AF
:1026E0004FEA5333BB6140F20003C2F20003BA6900
:1026F0009B181B78DBB27B617B685A687B6922FA86
:1027000003F27B68DA6007F12407BD4680BC70479E
:1027100080B483B000AF78600B46FB70FB78002B71
:102720000CD04FF46053C4F202034FF46052C4F271
:102730000202116B7A680A431A630DE04FF460538A
:10274000C4F202034FF46052C4F20202116B7A68C1
:102750006FEA02020A401A6307F10C07BD4680BC0B
:10276000704700BF80B483B000AF78600B46FB7049
:10277000FB78002B0CD04FF46053C4F202034FF4EB
:102780006052C4F20202116C7A680A431A640DE0C6
:102790004FF46053C4F202034FF46052C4F20202D9
:1027A000116C7A686FEA02020A401A6407F10C079A
:1027B000BD4680BC704700BF80B483B000AF786076
:1027C0000B46FB70FB78002B0CD04FF46053C4F227
:1027D00002034FF46052C4F20202516C7A680A4359
:1027E0005A640DE04FF46053C4F202034FF4605298
:1027F000C4F20202516C7A686FEA02020A405A641B
:1028000007F10C07BD4680BC704700BF80B584B09F
:1028100000AFF860B9607A603B60FB6803F10C03BD
:1028200018464FF0000100F003FFFB684FF0000274
:102830001A77FB684FF000025A62FB684FF0000203
:10284000DA62FB687A685A61FB68BA681A61FB68E9
:102850003A689A61F8686FF0A9014FF0AA0200F097
:10286000D7F8F8684FF000014FF000024FF0000376
:1028700000F072F8FB68184607F11007BD4680BDEE
:1028800080B485B000AF78607B689B691A687B680C
:102890001B691B68D31ABB607B685B6ABA68D21A73
:1028A0007B689A627B68DA6ABB68D2187B68DA62F6
:1028B0007B68BA685A627B6893ED007AD7ED027A3A
:1028C000F8EEE77A27EE277A7B68D3ED016A7B681A
:1028D000D3ED0B7AF8EEE77A66EEA77A37EE277A31
:1028E0007B68D3ED026A7B68D3ED0A7AF8EEE77A6B
:1028F00066EEA77A77EE277AFDEEE77AC7ED037AE0
:102900007B681B8C1AB2FB689A4204DA7B681B8CCA
:102910001BB2FB6009E07B68DB8B1AB2FB689A4252
:1029200003DD7B68DB8B1BB2FB60FB6883EAE37231
:10293000A2EBE3727B681B7F9A4202DA4FF000033E
:10294000FB607B685B69FA6892B21A8007F1140732
:10295000BD4680BC704700BF90B587B000AFF8603F
:10296000B9607A603B60D7ED027AF5EEC07AF1EE9D
:1029700010FA46D4D7ED017AF5EEC07AF1EE10FAEE
:102980003FD4D7ED007AF5EEC07AF1EE10FA38D4E4
:10299000FB6803F10C0407F1140318464FF0000123
:1029A00000F046FE07F114032046194600F052FEDF
:1029B0000346002B09D0FB68BA681A60FB687A6886
:1029C0005A60FB683A689A601CE09FED107AD7ED78
:1029D000027A77EE677AFB68C3ED007A9FED0B7A97
:1029E000D7ED017A77EE677AFB68C3ED017A9FED48
:1029F000077AD7ED007A77EE677AFB68C3ED027A43
:102A000000E000BF07F11C07BD4690BD00000000BC
:102A100080B483B000AF786013460A467A803B806A
:102A2000B7F90220B7F900309A4223DA7B687A8836
:102A3000DA837B683A881A847B685B691A887B68CA
:102A40001B8C12B21BB29A4205DD7B685B697A6807
:102A5000128C1A800FE07B685B691A887B68DB8BBD
:102A600012B21BB29A4206DA7B685B697A68D28B33
:102A70001A8000E000BF07F10C07BD4680BC70471C
:102A800080B584B000AF7860397007F10C03184648
:102A90004FF0010100F0CCFD3A4607F10C0310465F
:102AA000194600F0D7FD0346002B1DD07B68D3EDFF
:102AB000007A9FED117A77EE677A7B68C3ED007A32
:102AC0007B68D3ED017A9FED0C7A77EE677A7B68AD
:102AD000C3ED017A7B68D3ED027A9FED077A77EE3A
:102AE000677A7B68C3ED027A7B683A781A7307F1DC
:102AF0001007BD4680BD00BF0000000080B483B059
:102B000000AF78607B685B6A184607F10C07BD462A
:102B100080BC704780B483B000AF78607B689B6AEC
:102B2000184607F10C07BD4680BC704790B585B0CC
:102B300000AF7860786800F0A1FD7C6807F10803B9
:102B400018464FF00001FEF7EFFF2046397A01F0FA
:102B500071FB7B6803F1020407F10C0318464FF088
:102B60000101FEF7E1FF2046397B01F063FB7B6842
:102B70004FF001021A717B684FF001025A717B68B5
:102B800003F108007B6803F18C017B6803F17E028E
:102B90007B6803F17803FFF739FE7B6803F13800A7
:102BA0007B6803F190017B6803F17C027B6803F191
:102BB0007403FFF72BFE7B684FF000029A667B6878
:102BC0004FF00002DA667B684FF000021A677B68FC
:102BD0004FF000025A677B684FF000029A677B68EB
:102BE0004FF00002C3F880207B684FF00002C3F86A
:102BF00084207B684FF0000283F888207B684FF0C8
:102C0000000283F889207B6803E002F037F902F0C4
:102C100035F9184607F11407BD4690BD90B58BB045
:102C200000AF786001F068FB07F11C03184601F063
:102C300021FD7B6803F1080407F1200318464FF0DB
:102C4000000100F0F5FC204697F82010FFF718FF70
:102C50007B6803F1080318464FF07F514FF00002E4
:102C60004FF00003FFF778FE7B6803F1380407F1AB
:102C7000240318464FF0000100F0DAFC204697F8D4
:102C80002410FFF7FDFE7B6803F1380318464FF070
:102C90007E514FF000024FF00003FFF75DFE4FF052
:102CA0001E033B764FF000037B764FF00103BB76AB
:102CB0004FF00103FB7607F11803184600F0FCFF04
:102CC0004FF004004FF00101FFF74CFD4FF05303AC
:102CD000BB8140F2F3133B614FF00003BB824FF026
:102CE0000003FB8107F10C034FF40060C4F2000005
:102CF000194601F0D3FD4FF40060C4F200004FF01C
:102D000001014FF0010202F009F878684FF001016B
:102D100000F074F801E002F0B1F807F12C07BD46AD
:102D200090BD00BF80B483B000AF78607B68B3F81B
:102D30007E301BB2184607F10C07BD4680BC7047B9
:102D400080B483B000AF78607B68B3F87C301BB28E
:102D5000184607F10C07BD4680BC704780B483B0AD
:102D600000AF78607B689B6F184607F10C07BD4683
:102D700080BC704780B483B000AF78607B685B6FC5
:102D8000184607F10C07BD4680BC704780B582B07D
:102D900000AF786001F062FD0346184607F10807AE
:102DA000BD4680BD80B582B000AF786001F066FDA1
:102DB0000346184607F10807BD4680BD80B483B0BE
:102DC00000AF786039607B689A6E3B68D2187B6888
:102DD0009A6607F10C07BD4680BC704780B483B08B
:102DE00000AF786039607B68DA6E3B68D2187B6828
:102DF000DA6607F10C07BD4680BC704780B582B02B
:102E000000AF78600B46FB70FB78002B08D04FF4C6
:102E10000060C4F200004FF0010101F011FE0AE071
:102E20004FF40060C4F200004FF0000101F008FE12
:102E3000786800F043FB07F10807BD4680BD00BF7E
:102E400080B483B000AF78600B46FB707B68FA7883
:102E50001A7107F10C07BD4680BC704780B483B07F
:102E600000AF78600B46FB707B68FA785A7107F107
:102E70000C07BD4680BC704780B584B000AF786059
:102E800001F0ECFC0346FB6001F0F8FC0346BB607C
:102E9000FA68BB68D3184FEAD372D3184FEA6303BA
:102EA0001A467B68C3F88C20FA68BB68D21A7B6824
:102EB000C3F890207B681B79002B06D07B6803F158
:102EC00008031846FFF7DCFC04E07B684FF00002C3
:102ED000A3F87E207B685B79002B06D07B6803F12A
:102EE00038031846FFF7CCFC04E07B684FF0000283
:102EF000A3F87C20786800F013FA07F11007BD46AC
:102F000080BD00BF80B582B000AF78607B6803F100
:102F100008031846FFF7FEFD0346002B0BD17B6824
:102F200003F138031846FFF7F5FD0346002B02D1E5
:102F30004FF0010301E04FF00003184607F10807C6
:102F4000BD4680BD80B582B000AF78607868FFF77D
:102F5000D9FF0346002B0CD07B6893F88830002BF8
:102F600004D17B6893F88930002B02D04FF0010325
:102F700001E04FF00003002B00F0A48040F668232E
:102F8000C2F200031B68002B09D1FDF7A1F903462B
:102F90001A4640F66823C2F200031A6099E0FDF772
:102FA00097F903461A4640F66823C2F200031B68ED
:102FB000D21A40F2F3139A4294BF00230123DBB2EA
:102FC000002B00F086807B6803F108031846FFF7AA
:102FD00095FD0346002B09DD7B6803F108031846C5
:102FE000FFF78CFD0346322B0BDD2BE07B6803F1F2
:102FF00008031846FFF782FD0346C3F10003322B96
:1030000020DC7B6803F138031846FFF777FD0346A1
:10301000002B09DD7B6803F138031846FFF76EFDCE
:103020000346322B0BDD0DE07B6803F138031846B5
:10303000FFF764FD0346C3F10003322B02DC4FF0BF
:10304000010301E04FF00003002B17D040F6682386
:10305000C2F200034FF000021A607B6893F88830D8
:10306000002B05D0786800F029FA4FF0010332E018
:10307000786800F023FA4FF003032CE07B68B3F884
:103080007C301BB23B2B05DC7B68B3F87E301BB277
:103090003B2B0CDD786800F011FA40F66823C2F291
:1030A00000034FF000021A604FF0020313E078684B
:1030B00000F004FA40F66823C2F200034FF0000269
:1030C0001A6006E040F66823C2F200034FF00002E7
:1030D0001A604FF00003184607F10807BD4680BD8F
:1030E000B0B584B000AF78607B68D3F88C2040F630
:1030F0006423C2F200031B68D31A18460EF0AEFA1E
:1031000002460B461046194641A3D3E900230EF0B0
:103110000BFB02460B46104619460EF0C7FD034650
:10312000FB607B68D3F88C2040F66423C2F2000376
:103130001A60F8680EF0A4FA04460D46786800F0AC
:103140001BFA034618460EF09BFA02460B46104641
:1031500019460CF061FC02460B46204629460EF04B
:10316000E3FA02460B4614461D467B68D3F88030CE
:1031700018460EF085FA02460B46104619462246BE
:103180002B460EF01FF902460B46104619460EF06C
:103190008DFD02467B68C3F88020F8680EF070FA57
:1031A00004460D46786800F0E7F9034618460EF02D
:1031B00067FA02460B46104619460CF075FC0246AB
:1031C0000B46204629460EF0AFFA02460B4614463F
:1031D0001D467B68D3F8843018460EF051FA02463B
:1031E0000B461046194622462B460EF0EBF80246D7
:1031F0000B46104619460EF059FD02467B68C3F88F
:10320000842007F11007BD46B0BD00BFAFF30080BA
:103210001A868F882991CA3FF0B583B000AF7860D5
:10322000396013E038680EF019FA02460B46104672
:10323000194637A3D3E900230EF0C2F802460B4625
:10324000104619460EF00AFD03463B6038680EF042
:1032500005FA04460D4678680EF000FA02460B4661
:10326000104619462CA3D3E900230EF0ABF8024612
:103270000B464FF001010E46204629460EF0E4FCB5
:103280000346002B02D14FF000031E46F3B2002B81
:10329000C8D113E038680EF0E1F902460B4610463B
:1032A00019461BA3D3E900230EF08CF802460B4607
:1032B000104619460EF0D2FC03463B6038680EF00B
:1032C000CDF904460D4678680EF0C8F902460B4663
:1032D0001046194610A3D3E900230EF071F80246F8
:1032E0000B464FF001010E46204629460EF098FC91
:1032F0000346002B02D14FF000031E46F3B2002B11
:10330000C8D13B68184607F10C07BD46F0BD00BFA9
:1033100066666666E609C14066666666E609B140AD
:1033200080B582B000AF78607A687B68B3F87E3091
:1033300099B27B68B3F87C309BB2CB1A9BB29BB23C
:103340001BB21046194601F07DF87B6803F10202BA
:103350007B68B3F87E3099B27B68B3F87C309BB25F
:10336000CB189BB29BB21BB21046194601F06AF80B
:103370007B684FF0010283F8892007F10807BD46FA
:1033800080BD00BF00000000B0B582B000AF786023
:1033900039607B689B6F18460EF060F904460D4655
:1033A00038680EF05BF902460B46104619460EA32C
:1033B000D3E900230EF0E2FA02460B4620462946E6
:1033C0000EF000F802460B46104619460EF046FC79
:1033D00002467B689A677B684FF0010283F8882079
:1033E00007F10807BD46B0BD1A868F882991CA3FEC
:1033F00080B584B000AF786039607B68D3ED1C7A0B
:1034000097ED007A77EE677A17EE900A0EF038F9AA
:1034100002460B46104619460FA3D3E900230EF0CF
:10342000ADFA02460B46104619460EF017FC03464D
:10343000FB607B68D3F890301846F968FFF7ECFE24
:1034400002467B685A677B684FF0010283F8882048
:1034500007F11007BD4680BD9C0A659FCF99473F85
:1034600080B584B000AF7860397013467B8007F177
:103470000C0318464FF00001FEF756FB3A4607F1E1
:103480000C031046194600F005F90346002B07D03F
:103490007A68B7F902301046194600F0D3FF08E009
:1034A0007B6803F10202B7F902301046194600F0BA
:1034B000C9FF07F11007BD4680BD00BF80B582B0CF
:1034C00000AF78607B68D3F88C207B689A677B6854
:1034D000D3F890207B685A677B684FF00002A3F80E
:1034E0007C207B684FF00002A3F87E207B681846A2
:1034F0004FF0000100F0A6FF7B6803F102031846BD
:103500004FF0000100F09EFF7B684FF0000283F84F
:1035100088207B684FF0000283F8892007F10807B4
:10352000BD4680BD80B584B000AFF860B9607A60F8
:103530003B60FB6803F108031846B9687A683B688A
:10354000FFF70AFA07F11007BD4680BD80B584B0C9
:1035500000AFF860B9607A603B60FB6803F1380344
:103560001846B9687A683B68FFF7F6F907F1100763
:10357000BD4680BD00000000B0B582B000AF7860ED
:103580007B68D3F8903018460EF068F802460B4678
:103590001046194610A3D3E900230EF0C5F80246E1
:1035A0000B4614461D467B681B6F18460EF068F8E4
:1035B00002460B46204629460DF004FF02460B4604
:1035C000104619460EF072FB0346184607F108072D
:1035D000BD46B0BDAFF300809C0A659FCF99473FC1
:1035E00080B483B000AF78607B68D3F88030184631
:1035F00007F10C07BD4680BC704700BF80B483B0A4
:1036000000AF78607B68D3F88430184607F10C0768
:10361000BD4680BC704700BF80B483B000AF786007
:103620007B68184607F10C07BD4680BC704700BF99
:1036300080B582B000AF78600B46FB707868FFF70A
:10364000EBFF7B68FA781A707B68184607F1080769
:10365000BD4680BD80B483B000AF786039607B68C0
:103660001A783B681B789A4214BF00230123DBB20F
:10367000184607F10C07BD4680BC704780B483B084
:1036800000AF78607B68184607F10C07BD4680BC28
:10369000704700BF80B483B000AF786039607B684A
:1036A0001A783B681B789A4214BF00230123DBB2CF
:1036B000184607F10C07BD4680BC704780B487B040
:1036C00000AF786039604FF000037B614FF000037A
:1036D0003B614FF00003FB604FF000037B6186E02D
:1036E0007B694FF0010202FA03F33B613B681A6801
:1036F0003B691340FB60FA683B699A4273D17B686F
:103700001A687B694FEA43034FF0030101FA03F3A0
:103710006FEA03031A407B681A607B681A683B688B
:103720001B7919467B694FEA430301FA03F31A43F5
:103730007B681A603B681B79012B03D03B681B79BF
:10374000022B34D17B689A687B694FEA43034FF0C0
:10375000030101FA03F36FEA03031A407B689A60DE
:103760007B689A683B685B7919467B694FEA43033B
:1037700001FA03F31A437B689A607B685A687B6995
:103780009BB24FF0010101FA03F36FEA03031A4001
:103790007B685A607B685A683B689B7919467B69ED
:1037A0009BB201FA03F39BB21A437B685A607B68B1
:1037B000DA687B699BB24FEA43034FF0030101FAD9
:1037C00003F36FEA03031A407B68DA607B68DA6808
:1037D0003B68DB7919467B694FEA430301FA03F33F
:1037E0001A437B68DA607B6903F101037B617B69C3
:1037F0000F2B7FF675AF07F11C07BD4680BC7047E5
:1038000080B483B000AF78607B684FF6FF721A60B7
:103810007B684FF000021A717B684FF000025A710A
:103820007B684FF000029A717B684FF00002DA71FA
:1038300007F10C07BD4680BC704700BF80B483B061
:1038400000AF78600B467B807B687A881A8307F12B
:103850000C07BD4680BC704780B483B000AF786071
:103860000B467B807B687A885A8307F10C07BD463C
:1038700080BC704780B485B000AF786013460A46BC
:103880007A807B704FF00003FB604FF00003BB6059
:103890007A787B8803F007034FEA830302FA03F385
:1038A000FB607B884FEAD3039BB21A467B884FEAC2
:1038B000D3039BB219467B6801F1080153F821102C
:1038C0007B8803F007034FEA83034FF00F0000FAF1
:1038D00003F36FEA030319407B6802F1080243F81F
:1038E00022107B884FEAD3039BB21A467B6802F111
:1038F000080253F82220FB681343BB607B884FEA21
:10390000D3039BB21A467B6802F10802B96843F8F8
:10391000221007F11407BD4680BC704780B500AF88
:103920004FF46D43CEF200034FF46D42CEF200022D
:10393000D2F8882042F47002C3F888204FF4605314
:10394000C4F202034FF46052C4F20202126842F061
:1039500001021A604FF46053C4F202034FF00002F8
:103960009A604FF46053C4F202034FF46052C4F201
:103970000202126822F0847222F480321A604FF43C
:103980006053C4F2020343F21002C2F200425A60D2
:103990004FF46053C4F202034FF46052C4F20202C7
:1039A000126822F480221A604FF46053C4F20203BA
:1039B0004FF00002DA6000F009F84FF46D43CEF2E8
:1039C00000034FF000629A6080BD00BF80B483B0F6
:1039D00000AF4FF000037B604FF000033B604FF4FB
:1039E0006053C4F202034FF46052C4F20202126840
:1039F00042F480321A604FF46053C4F202031B6831
:103A000003F400333B607B6803F101037B603B6898
:103A1000002B03D17B68B3F5A06FECD14FF460535A
:103A2000C4F202031B6803F40033002B03D04FF0F1
:103A300001033B6002E04FF000033B603B68012B59
:103A400040F082804FF46053C4F202034FF460529E
:103A5000C4F20202126C42F080521A644FF4E04346
:103A6000C4F200034FF4E042C4F20002126842F4D0
:103A700080421A604FF46053C4F202034FF4605264
:103A8000C4F2020292689A604FF46053C4F20203D7
:103A90004FF46052C4F20202926842F400429A600B
:103AA0004FF46053C4F202034FF46052C4F20202B6
:103AB000926842F4A0529A604FF46053C4F2020339
:103AC00045F20842C0F240725A604FF46053C4F2AB
:103AD00002034FF46052C4F20202126842F0807294
:103AE0001A6000BF4FF46053C4F202031B6803F076
:103AF0000073002BF6D04FF47053C4F2020340F26F
:103B000005621A604FF46053C4F202034FF460522E
:103B1000C4F20202926822F003029A604FF46053EA
:103B2000C4F202034FF46052C4F20202926842F0FF
:103B300002029A6000BF4FF46053C4F202039B6814
:103B400003F00C03082BF6D14FF46053C4F20203C8
:103B50004FF46052C4F20202926822F400029A60AA
:103B60004FF46053C4F202034FF48142C3F20002E7
:103B7000C3F884204FF46053C4F202034FF4605240
:103B8000C4F20202126842F080621A6000BF4FF471
:103B90006053C4F202031B6803F00063002BF6D0ED
:103BA00007F10C07BD4680BC704700BF80B485B0EC
:103BB00000AF786040F66C23C2F200031B68002B54
:103BC00008D140F66C23C2F2000341F62852C2F23B
:103BD00000021A6040F66C23C2F200031B68FB600F
:103BE00040F66C23C2F200031A687B68D21840F6D4
:103BF0006C23C2F200031A60FB68184607F1140731
:103C0000BD4680BC704700BF80B483B000AF786011
:103C10004FF0FF33184607F10C07BD4680BC7047D4
:103C200080B483B000AF786039603B684FF40052D5
:103C30005A604FF00003184607F10C07BD4680BCE0
:103C4000704700BF80B483B000AF78604FF00103CD
:103C5000184607F10C07BD4680BC704780B485B09C
:103C600000AFF860B9607A604FF00003184607F1C2
:103C70001407BD4680BC704780B485B000AFF860C3
:103C8000B9607A604FF00003184607F11407BD468B
:103C900080BC704780B485B000AFF860B9607A60CE
:103CA0007B68184607F11407BD4680BC704700BF0B
:103CB00080B400AFFEE700BF80B485B000AF78608D
:103CC0004FF00003FB734FF00003BB734FF00F0383
:103CD0007B737B68DB78002B45D04FF46D43CEF2CD
:103CE0000003DB686FEA030303F4E0634FEA132386
:103CF000FB73FB7BC3F10403BB737A7BFB7B42FA50
:103D000003F37B737B685B781A46BB7B02FA03F391
:103D1000FB737B689A787B7B1340DAB2FB7B13439F
:103D2000FB73FB7B4FEA0313FB734FF46143CEF24B
:103D300000037A6812789B18FA7B83F800234FF40B
:103D40006143CEF200037A6812784FEA5212D2B27F
:103D50007968097801F01F014FF0010000FA01F1C4
:103D600043F8221014E04FF46143CEF200037A6866
:103D700012784FEA5212D2B27968097801F01F0125
:103D80004FF0010000FA01F102F1200243F8221085
:103D900007F11407BD4680BC704700BF80B582B0F4
:103DA00000AF4FF48050C4F2010040F22551FCF7FF
:103DB00029FC0346002B0CBF00230123DBB2002BA0
:103DC0000BD04FF48050C4F20100FCF797FB034680
:103DD000FB71FB79184600F0B9F807F10807BD46FA
:103DE00080BD00BF80B582B000AF4FF48840C4F200
:103DF000000040F22551FCF705FC0346002B0CBFE8
:103E000000230123DBB2002B0BD04FF48840C4F217
:103E10000000FCF773FB0346FB71FB79184600F0CA
:103E2000D3F807F10807BD4680BD00BF80B582B05A
:103E300000AF4FF49040C4F2000040F22551FCF76F
:103E4000E1FB0346002B0CBF00230123DBB2002B58
:103E50000BD04FF49040C4F20000FCF74FFB034638
:103E6000FB71FB79184600F0EDF807F10807BD4635
:103E700080BD00BF80B582B000AF4FF49840C4F25F
:103E8000000040F22551FCF7BDFB0346002B0CBFA0
:103E900000230123DBB2002B0BD04FF49840C4F277
:103EA0000000FCF72BFB0346FB71FB79184600F082
:103EB00007F907F10807BD4680BD00BF80B582B095
:103EC00000AF4FF4A040C4F2000040F22551FCF7CF
:103ED00099FB0346002B0CBF00230123DBB2002B10
:103EE0000BD04FF4A040C4F20000FCF707FB0346E0
:103EF000FB71FB79184600F021F907F10807BD4670
:103F000080BD00BF80B582B000AF4FF4A050C4F2B6
:103F1000010040F22551FCF775FB0346002B0CBF56
:103F200000230123DBB2002B0BD04FF4A050C4F2CE
:103F30000100FCF7E3FA0346FB71FB79184600F039
:103F40003BF907F10807BD4680BD00BF80B485B0CE
:103F500000AF0346FB7140F60C13C2F200031B6C6A
:103F600003F101024FF03F03C8F200031340002B9E
:103F700005DA03F1FF3363F03F0303F10103FB6054
:103F800040F60C13C2F200035A6CFB689A420CBF55
:103F900000230123DBB2002B10D040F60C13C2F239
:103FA00000031A6C40F60C13C2F20003F97999541D
:103FB00040F60C13C2F20003FA681A6407F1140702
:103FC000BD4680BC704700BF80B485B000AF0346DB
:103FD000FB7140F67023C2F200031B6C03F1010277
:103FE0004FF03F03C8F200031340002B05DA03F142
:103FF000FF3363F03F0303F10103FB6040F67023DE
:10400000C2F200035A6CFB689A420CBF00230123E2
:10401000DBB2002B10D040F67023C2F200031A6C02
:1040200040F67023C2F20003F979995440F67023E8
:10403000C2F20003FA681A6407F11407BD4680BC97
:10404000704700BF80B485B000AF0346FB7140F6F7
:10405000B823C2F200031B6C03F101024FF03F03CF
:10406000C8F200031340002B05DA03F1FF3363F0BD
:104070003F0303F10103FB6040F6B823C2F20003E3
:104080005A6CFB689A420CBF00230123DBB2002B61
:1040900010D040F6B823C2F200031A6C40F6B823E1
:1040A000C2F20003F979995440F6B823C2F2000332
:1040B000FA681A6407F11407BD4680BC704700BF58
:1040C00080B485B000AF0346FB7140F60033C2F206
:1040D00000031B6C03F101024FF03F03C8F2000321
:1040E0001340002B05DA03F1FF3363F03F0303F1C4
:1040F0000103FB6040F60033C2F200035A6CFB6818
:104100009A420CBF00230123DBB2002B10D040F6F3
:104110000033C2F200031A6C40F60033C2F200030F
:10412000F979995440F60033C2F20003FA681A6430
:1041300007F11407BD4680BC704700BF80B485B04E
:1041400000AF0346FB7140F64833C2F200031B6C1C
:1041500003F101024FF03F03C8F200031340002BAC
:1041600005DA03F1FF3363F03F0303F10103FB6062
:1041700040F64833C2F200035A6CFB689A420CBF07
:1041800000230123DBB2002B10D040F64833C2F2EB
:1041900000031A6C40F64833C2F20003F9799954CF
:1041A00040F64833C2F20003FA681A6407F11407B4
:1041B000BD4680BC704700BF80B485B000AF0346E9
:1041C000FB7140F69033C2F200031B6C03F1010255
:1041D0004FF03F03C8F200031340002B05DA03F150
:1041E000FF3363F03F0303F10103FB6040F69033BC
:1041F000C2F200035A6CFB689A420CBF00230123F1
:10420000DBB2002B10D040F69033C2F200031A6CE0
:1042100040F69033C2F20003F979995440F6903396
:10422000C2F20003FA681A6407F11407BD4680BCA5
:10423000704700BF80B586B000AF786039707B688A
:104240003A781A707B684FF0AA025A7007F1080397
:104250001846FFF7D5FA4FF008004FF00101FEF7BE
:1042600057FA07F1100318464FF00001FDF75CFC08
:104270003A4607F1100310461946FFF70BFA0346BA
:10428000002B12D04FF48063BB604FF001033B73EF
:104290004FF003037B7307F108034FF44060C4F24F
:1042A00002001946FFF70AFA11E04FF48053BB6091
:1042B0004FF001033B734FF003037B7307F10803D7
:1042C0004FF44060C4F202001946FFF7F7F907F116
:1042D000140318464FF0010100F0A6F97868397D03
:1042E00000F036F97B6802E0FFE700F0C7FD1846F2
:1042F00007F11807BD4680BD80B58CB000AF4FF008
:1043000002004FF00101FEF757FA4FF004004FF0A2
:104310000101FEF7FDF907F124031846FFF770FAD3
:104320004FF0C0037B624FF0020387F828304FF054
:10433000030387F829304FF0000387F82A304FF045
:10434000010387F82B3007F124034FF40060C4F217
:1043500002001946FFF7B2F94FF40060C4F2020000
:104360004FF006014FF00302FFF784FA4FF40060AC
:10437000C4F202004FF007014FF00302FFF77AFA90
:104380004FF00103FB854FF0FF03FB61FB8D3B8387
:104390004FF000033B844FF000037B8307F11803C9
:1043A0004FF48060C4F20100194600F077FA4FF034
:1043B0006003BB804FF000033B824FF00103FB80A2
:1043C0004FF00003FB6007F104034FF48060C4F278
:1043D0000100194600F054FB4FF48060C4F2010064
:1043E0004FF0080100F05EFC4FF00103FB804FF03E
:1043F0000003FB6007F104034FF48060C4F2010086
:10440000194600F0BBFB4FF48060C4F201004FF08E
:10441000080100F063FC4FF48060C4F201004FF02B
:10442000010100F0EDFA4FF48060C4F201004FF09A
:10443000010100F005FB01E000F020FD07F130076D
:10444000BD4680BD90B587B000AF78600B467B80DD
:10445000B7F90230002B37DB07F1080318464FF09D
:10446000010100F0E1F87868397A00F071F87C68B1
:1044700007F10C0318464FF00001FDF755FB07F15B
:104480000C0320461946FFF705F90346002B0DD013
:104490004FF48063C4F201037A6852781146B7F989
:1044A00002209142B8BF0A465A634DE04FF4806340
:1044B000C4F201037A6852781146B7F9022091429A
:1044C000B8BF0A469A633FE007F1100318464FF061
:1044D000000100F0A9F87868397C00F039F87C68B0
:1044E00007F1140318464FF00001FDF71DFB07F11B
:1044F000140320461946FFF7CDF80346002B0FD0D2
:104500004FF48063C4F201037A6852781146B7F918
:104510000220C2F100029142B8BF0A465A6313E07A
:104520004FF48063C4F201037A6852781146B7F9F8
:104530000220C2F100029142B8BF0A469A6303E02A
:1045400000F09CFC00F09AFC07F11C07BD4690BDF2
:1045500090B587B000AF786039707C6807F10C03C4
:1045600018464FF00001FDF7DFFA07F10C03204673
:104570001946FFF78FF80346002B22D007F11003EE
:1045800018464FF0010100F04FF83A4607F11003CA
:104590001046194600F05AF80346002B08D04FF495
:1045A0004060C4F202004FF48061FFF747F92AE04F
:1045B0004FF44060C4F202004FF48061FFF74CF901
:1045C00021E007F1140318464FF0010100F02CF828
:1045D0003A4607F114031046194600F037F803462F
:1045E000002B08D04FF44060C4F202004FF4805119
:1045F000FFF724F907E04FF44060C4F202004FF4E3
:104600008051FFF729F907F11C07BD4690BD00BF97
:1046100080B483B000AF78607B68184607F10C0760
:10462000BD4680BC704700BF80B582B000AF7860E7
:104630000B46FB707868FFF7EBFF7B68FA781A701F
:104640007B68184607F10807BD4680BD80B483B07B
:1046500000AF786039607B681A783B681B789A42B3
:1046600014BF00230123DBB2184607F10C07BD4637
:1046700080BC704780B588B000AF78604FF0010013
:104680004FF00101FEF744F84FF008004FF0010130
:10469000FEF768F807F118031846FFF7B1F84FF076
:1046A0000303BB614FF003037B774FF002033B77BB
:1046B0004FF00003BB774FF00103FB7707F11803BE
:1046C0004FF00000C4F202001946FEF7F7FF4FF06A
:1046D0000000C4F202004FF000014FF00202FFF7A9
:1046E000C9F84FF00000C4F202004FF001014FF092
:1046F0000202FFF7BFF84FF44060C4F200004FF031
:1047000003014FF000024FF0000300F06DFB07F1D2
:104710000C03184600F03CF94FF00003BB814FF04A
:104720000003FB814FF0FF333B614FF00003BB827E
:1047300007F10C034FF44060C4F20000194600F08A
:10474000ADF84FF44060C4F200004FF0010100F0FA
:1047500077F94FF44060C4F200006FF0004100F0C0
:1047600035F94FF002004FF00101FDF7D1FF4FF096
:1047700002004FF00101FDF7F5FF07F1180318469D
:10478000FFF73EF84FF03003BB614FF003037B7738
:104790004FF002033B774FF00003BB774FF001036C
:1047A000FB7707F118034FF48060C4F2020019464A
:1047B000FEF784FF4FF48060C4F202004FF0050161
:1047C0004FF00202FFF756F84FF48060C4F2020087
:1047D0004FF004014FF00202FFF74CF84FF48060F5
:1047E000C4F200004FF003014FF000024FF000034D
:1047F00000F0FAFA07F10C03184600F0C9F84FF080
:104800000003BB814FF00003FB814FF0FF333B619E
:104810004FF00003BB8207F10C034FF48060C4F239
:104820000000194600F03AF84FF48060C4F200002E
:104830004FF0010100F004F94FF48060C4F2000071
:1048400047F6FF7100F0C2F87B6801E000F016FB4C
:10485000184607F12007BD4680BD00BF80B500AFF8
:104860004FF44060C4F2000000F0BEF8034603F1CC
:10487000004303F10103184680BD00BF80B500AFBF
:104880004FF48060C4F2000000F0AEF80346A3F5D8
:10489000FF43A3F17F03184680BD00BF80B485B0FD
:1048A00000AF786039604FF00003FB817B681B88A4
:1048B000FB817A684FF00003C4F201039A421FD0D3
:1048C0007A684FF48063C4F201039A4218D07B687F
:1048D000B3F1804F14D07A684FF48063C4F20003C0
:1048E0009A420DD07A684FF40063C4F200039A42F2
:1048F00006D07A684FF44063C4F200039A4208D1AC
:10490000FB8923F07003FB813B685A88FB891343C2
:10491000FB817A684FF48053C4F200039A420FD0AF
:104920007A684FF4A053C4F200039A4208D0FB897E
:1049300023F44073FB813B681A89FB891343FB8195
:104940007B68FA891A803B685A687B68DA623B6840
:104950001A887B681A857A684FF00003C4F2010355
:104960009A4206D07A684FF48063C4F201039A42F7
:1049700004D13B689B7A1A467B681A867B684FF0A5
:1049800001029A8207F11407BD4680BC704700BF40
:1049900080B483B000AF78607B684FF0FF325A601C
:1049A0007B684FF000021A807B684FF000021A818A
:1049B0007B684FF000025A807B684FF000029A72C9
:1049C00007F10C07BD4680BC704700BF80B483B0C0
:1049D00000AF786039607B683A685A6207F10C076B
:1049E000BD4680BC704700BF80B483B000AF786024
:1049F0007B685B6A184607F10C07BD4680BC7047B0
:104A000080B483B000AF78600B46FB70FB78002B5E
:104A100008D07B681B889BB243F080039AB27B6806
:104A20001A8007E07B681B889BB223F080039AB250
:104A30007B681A8007F10C07BD4680BC704700BF39
:104A400080B483B000AF78600B46FB70FB78002B1E
:104A500008D07B681B889BB243F001039AB27B6845
:104A60001A8007E07B681B889BB223F001039AB28F
:104A70007B681A8007F10C07BD4680BC704700BFF9
:104A800080B485B000AF786039604FF000037B815F
:104A90004FF00003FB814FF00003BB817B681B8C50
:104AA0009BB223F001039AB27B681A847B681B8C4B
:104AB000FB817B689B88BB817B681B8B7B817B89AF
:104AC00023F070037B817B8923F003037B813B68A8
:104AD0001A887B8913437B81FB8923F00203FB81C6
:104AE0003B689A89FB891343FB813B685A88FB89A1
:104AF0001343FB817A684FF00003C4F201039A422A
:104B000006D07A684FF48063C4F201039A4223D13D
:104B1000FB8923F00803FB813B68DA89FB89134397
:104B2000FB81FB8923F00403FB813B689A88FB89A6
:104B30001343FB81BB8923F48073BB81BB8923F4BE
:104B40000073BB813B681A8ABB891343BB813B68F6
:104B50005A8ABB891343BB817B68BA899A807B6878
:104B60007A891A833B689A687B685A637B68FA89FA
:104B70001A8407F11407BD4680BC704780B485B025
:104B800000AF786039604FF000037B814FF0000385
:104B9000FB814FF00003BB817B681B8C9BB223F031
:104BA00010039AB27B681A847B681B8CFB817B683C
:104BB0009B88BB817B681B8B7B817B8923F4E043D3
:104BC0007B817B8923F440737B813B681B884FEAA0
:104BD00003239AB27B8913437B81FB8923F0200353
:104BE000FB813B689B894FEA03139AB2FB8913430D
:104BF000FB813B685B884FEA03139AB2FB8913433E
:104C0000FB817A684FF00003C4F201039A4206D098
:104C10007A684FF48063C4F201039A422FD1FB8972
:104C200023F08003FB813B68DB894FEA03139AB2D0
:104C3000FB891343FB81FB8923F04003FB813B6825
:104C40009B884FEA03139AB2FB891343FB81BB890C
:104C500023F48063BB81BB8923F40063BB813B6881
:104C60001B8A4FEA83039AB2BB891343BB813B681B
:104C70005B8A4FEA83039AB2BB891343BB817B688B
:104C8000BA899A807B687A891A833B689A687B68BC
:104C90009A637B68FA891A8407F11407BD4680BCC1
:104CA000704700BF80B485B000AF78600B467B8052
:104CB0004FF00003FB817B681B8BFB81FB8923F09A
:104CC0000803FB81FA897B881343FB817B68FA899F
:104CD0001A8307F11407BD4680BC704780B485B0C5
:104CE00000AF78600B467B804FF00003FB817B6850
:104CF0001B8BFB81FB8923F40063FB817B884FEADC
:104D000003239AB2FB891343FB817B68FA891A83D8
:104D100007F11407BD4680BC704700BF80B483B064
:104D200000AF786013460A467A807B707B78002B50
:104D300008D07B689B899AB27B8813439AB27B68C0
:104D40009A810AE07B689B899AB27B886FEA0303A9
:104D50009BB213409AB27B689A8107F10C07BD465B
:104D600080BC704780B485B000AF78600B467B8014
:104D70004FF00003FB734FF00003BB814FF00003C3
:104D80007B817B681B8A9AB27B881340BB817B68DE
:104D90009B899AB27B8813407B81BB89002B06D00C
:104DA0007B89002B03D04FF00103FB7302E04FF02F
:104DB0000003FB73FB7B184607F11407BD4680BC5C
:104DC000704700BF80B483B000AF78600B467B8033
:104DD0007B886FEA03039AB27B681A8207F10C079B
:104DE000BD4680BC704700BF80B487B000AFF8609C
:104DF00079813A81FB804FF00003FB824FF0000382
:104E0000BB824FF000037B82FB681B89FB82FB683F
:104E10001B8BBB82FB681B8C7B82FB8A23F0070306
:104E2000FB82FA8A7B891343FB82BB8A23F440739B
:104E300023F00303BB82BB8A43F4807343F0010376
:104E4000BB827B8A23F022037B82FB884FEA031319
:104E50009AB23B8913439AB27B8A13437B82FB68E5
:104E6000FA8A1A81FB68BA8A1A83FB687A8A1A84DA
:104E700007F11C07BD4680BC704700BF1EB400F0A0
:104E80008DF81EBC0DF0C2FDF0B50278472A83B044
:104E90000E461F461CD00020254C0190216820465C
:104EA0008D68A84780B1019A136802250193316883
:104EB000304601AA0E6901232146B04730B101985E
:104EC0003860284603B0F0BD0125F0E70546F8E755
:104ED00043784E2BDFD181785529DCD1C478432C1F
:104EE000D9D10579462D16D00479432CD3D14579F3
:104EF0002B2DD0D182792B2ACDD1C379012BCAD8C1
:104F000004D050F8204C58300190C7E750F8200CDE
:104F100050F8784CF8E742794F2AE5D18379522B43
:104F2000E2D1C1790029DFD10191024CB6E700BF7F
:104F300064B40108F8B3010810B5044600F06EF837
:104F40002378472BA4F1200204D0836823BB82601E
:104F5000012010BD61784E29F7D1A378552BF4D1EB
:104F6000E1784329F1D12379432BEED161792B29C3
:104F7000EBD1A3792B2BE8D1E1790129E5D854F8BD
:104F8000041C4B1C012B44F8043CE1D1816844F81B
:104F9000081C8260012010BD00F01EFD08B500F065
:104FA0003DF88368002B30D093F82020472A04D0A6
:104FB0000022826003F1200008BD93F821104E29E1
:104FC000F6D193F82220552AF2D193F823104329E1
:104FD000EED193F82420432AEAD193F825102B2907
:104FE000E6D193F826202B2AE2D193F82710012945
:104FF000DED8D9694A1EDA61002ADBD1996981605D
:105000000020986103F1200008BD00F0E5FC00BF1E
:1050100040F6D830C2F20000704700BF40F6D830EA
:10502000C2F20000704700BF08B50368DB0705D473
:10503000417829B901224270104608BD002008BD00
:10504000042000F063FC034B03490360034A00F0B3
:10505000D9F800BF98B5010860B50108595A000891
:1050600000234370704700BF01230360704700BFF7
:10507000014B0360704700BFE8B30108014B0360B8
:10508000704700BFE8B301084BF21C40C0F60100B6
:10509000704700BF4BF22C40C0F60100704700BFC4
:1050A000034B10B50446036000F00EF8204610BD17
:1050B000E8B30108034B10B50446036000F004F8A0
:1050C000204610BDE8B3010808B10EF0DDB8704706
:1050D00070B5036884B015460024102202929E69C0
:1050E00000948DF8044003942A686B46B0479DF8FD
:1050F000040000F00601062902D0204604B070BD6D
:10510000009B01202B60F9E70098904214BF01201A
:105110000620704738B515461C4600F087FC28B1BC
:105120000620082320712560E360012038BD00BF00
:10513000034B10B50446036000F062FC204610BD2E
:10514000D0B4010810B50446FFF7F2FF2046FFF780
:10515000BBFF204610BD00BFF0B583B00646089CDB
:105160000A9DAC4217460CD03046194600F05EFC52
:1051700020B10B9901230C600F718B71002003B0DB
:10518000F0BD0999019300F051FC019B0028EBD080
:105190000B9A5771F2E700BFF8B507460D46164661
:1051A0001C4600F043FC48B9032C00D9F8BD2B681D
:1051B00028465B69394632469847F8BD0120F8BD5C
:1051C000012810B51AD8A1F12803BFF35F8F53E867
:1051D000002F013A43E800200028F8D1BFF35F8F89
:1051E0005AB951F81C3C01F158040BB120469847BC
:1051F0002046BDE8104000F0C1BB10BD51F8140CB2
:1052000000F0D6FB70B540F2400540F23C04C2F21B
:105210000004C2F20005034626682D6840F8781C99
:105220002B21432043F8742C03F8531C03F8521C21
:10523000012245F2C111A3F1580443F8802C43F830
:10524000705C43F86C6C552203F8550C03F8540C51
:10525000C0F60001002047254E2603F8510C03F844
:10526000585C03F8576C03F8562C43F8501C204642
:105270000DF0BAFB204600F045FD00F0ADFB00BF8D
:1052800010B5FFF7CBFE42680368511C41606BB15B
:1052900093F82040472C0BD00021016003F120043B
:1052A00020460DF0C5FB204600F02CFD00F094FBDD
:1052B00093F821204E2AEFD193F822105529EBD1F3
:1052C00093F82340432CE7D193F82420432AE3D1D9
:1052D00093F825102B29DFD193F826402B2CDBD116
:1052E00093F82720012AD7D8586944425C61D5E752
:1052F00038B5002814BF0446012420460DF0BCFF39
:1053000048B90D4D2B683BB1984720460DF0B4FFCE
:105310000028F7D038BD38BD042000F0F7FA074A5E
:1053200007490260074AFFF76DFF013101D0FFF71F
:10533000A5FD00F05BFC00BFE813002018B60108D3
:1053400028B60108DD5C000830B40024234610F8BC
:10535000012B02F07F0505FA03F5073312F0800FE9
:1053600044EA0504F3D11F2B08D802F04002D2B260
:1053700022B14FF0FF3202FA03F31C430C6030BC41
:10538000704700BF2DE9F041502884B0064688469A
:1053900049D000F00F050C2D2DD8DFE805F0072EC1
:1053A0004007192C2C2C2C211D071900144654F8E9
:1053B000045B45B106F07001102918BF4246AD18D4
:1053C000320648BF2D681D60204604B0BDE8F0815C
:1053D000144654F8085BECE7144634F9025BE8E73E
:1053E000104603A901920093FFF7AEFF039D019AB7
:1053F000009B0446DDE7FEF75BFC002511462846CE
:105400000C4614F8017B07F07F0C0CFA00FC073007
:1054100017F0800F214645EA0C05F1D1C9E7144683
:1054200034F8025BC5E7D41C24F0030454F8045B91
:10543000C9E700BFFF2808B50DD000F07003202B8E
:1054400013D007D9402B0BD0502B04D0302B11D0C8
:10545000FEF72EFC0BB9002008BD102BF8D1FAE79F
:105460000846BDE808400DF0D1BC0846BDE808403C
:105470000DF0E0BC0846BDE808400DF0D7BC00BF09
:10548000F8B50C461646074608B10DF0BFFC306073
:1054900014F8015BFF2D33D039462846FFF7CAFFC9
:1054A000331D014622462846FFF76CFF044620467E
:1054B00010F8013BFF2B337529D0002210243475DE
:1054C000134610F8015B05F07F0101FA03F10A436E
:1054D00007332906F5D48218F26010F8014B002139
:1054E0000B46747510F8014B04F07F0505FA03F5BF
:1054F0000733220641EA0501F4D442183261F8BDAF
:105500007060204610F8013BFF2B3375D5D1002188
:10551000F160E2E72DE9F04F00F0030393B00024BF
:10552000012B04940E46154600F0B08080F08D806B
:1055300000F008005FFA80F84FF0010B12A800217C
:1055400040F82C6D0C220B46009028460CF0F4FD20
:1055500028460DF061FC0746002800F08E800CAA5A
:1055600001462846FFF78CFF294682469DF84400F5
:10557000FFF760FF0BAC00210B460E90009428460D
:105580000F220CF0BBFD0B9B23F0010148EA0B0836
:1055900001F1FF39109A924539D29DF845B00021AA
:1055A0005846FFF747FF5246014609AB5846FFF7FA
:1055B000E9FE9DF845A0834600215046FFF73AFFDB
:1055C0005A4601460AAB5046FFF7DCFE9DF845A05F
:1055D000834600215046FFF72DFF5A4601462346D9
:1055E0005046FFF7CFFE00218E4610F8013B03F036
:1055F0007F0202FA0EF21B06824641EA02010EF118
:10560000070EF2D40C98099B1818814521D24FF04F
:1056100000094FF0010A4FF0000B18F0010F61D0A4
:10562000BAF1020F29D00021009428460D220B4622
:10563000049C0CF063FD0B9874623062C6F828B0CD
:10564000F762C6F8309006201DE0022B15D0FEF759
:105650002FFB0A9A831899459CD20B98002800F0DA
:10566000A5800D9A00EB0209002940F0A180B9F154
:10567000000F02D04FF0020ACDE7304629460DF068
:10568000B1FB58B9082013B0BDE8F08F00F0080155
:1056900001F0FF0821B14FF0020B4FE70920F2E7BC
:1056A0000BAC0094104641460D224346376A0CF07D
:1056B00025FD0B9A9742EED112AF414647F82C6D6B
:1056C0004346009728460C220CF036FD06F12801CF
:1056D00091E88802B9F1000F00F005819B464FF078
:1056E000030A3BE018F0080F34D0BAF1010F00F0C4
:1056F0000A81BBF1000FC0F2028112A8002140F81C
:10570000246D0A460B46009028460CF015FD12A8A1
:10571000002140F820BD0B460122009028460CF0E5
:105720000BFD00210B460F22009428460CF0E6FCEE
:1057300000940B9C002104F0010249EA020428466F
:105740000F220B460B940CF0F7FCBAF1020F28D095
:10575000072098E7BAF1010F00F0C580BBF1000FF8
:10576000CBDA39460CAA2846FFF78AFE9DF844009A
:105770002946FFF75FFE6FEA0B070F9A0E9052F86B
:10578000273002EB870733B13A46002352F8041F53
:1057900001330029FAD1F0620420B36230637763E9
:1057A000ABE73046FFF7C8FB07206CE781465BE7B5
:1057B000109B01395818B9F1000F3FF45EAF002873
:1057C0003FF458AF18F00802039200F0838047239B
:1057D0004E2255213370727043234622B170F3700C
:1057E00032714F21522300227171B371F2714FF067
:1057F000000B029505A9FFF7A7FD06A98246FFF752
:10580000A3FD059B002B35D03CDD9DF84400FF280F
:105810005DD000F00702042A3FF619AF01A151F84C
:1058200022F000BF695800084F5600083958000898
:10583000695800086F5800084FF0020E0F9D0E992E
:1058400003FB1E522346FFF79DFD0B9931B19EB11C
:105850003046002204ABFFF717FB68B1029D059BA1
:105860009B464FF0030AD8E64FF0040EE6E74FF0F0
:10587000080EE3E74FF0010B069B002B36D00AEB36
:105880000300B7E70EB1039D3DB1D8430F9951F81E
:105890002020002AF0D1029DE2E76FEA030C0F9D61
:1058A000049855F82C10089005EB8C020029F2D0D2
:1058B000154603E055F8041F0029CFD0304669187B
:1058C000002208ABFFF7E0FA0028F3D0D4E74FF04E
:1058D000000EB3E7F17901290CBF56F8201C06F140
:1058E0005801049183E7304600F070F9029DBBF146
:1058F000000F3FF4C2AE9B464FF0020A8DE600F067
:1059000077F800F0FFF900F067F800BF38B500F154
:10591000800528460DF0B0FC044660B1FFF77EFB21
:1059200043685A1C42600021204680220EF0CCF9C8
:1059300004F1800038BD0F4AB5F5007F136809D81F
:1059400013F0010409D09C0711D5580704D503248E
:10595000190702D500F040F80224012101FA04F1F0
:1059600041EA03001060044A02EB4424D6E7012414
:10597000F3E700BFE40B0020E80B00200A4B98423D
:1059800003D303F50062904202D380380DF07CBC53
:10599000064AC01A1168430A012000FA03F321EAFB
:1059A00003011160704700BFE80B0020E40B0020EA
:1059B00008B58047FEF77CF900F0A4F9FEF778F906
:1059C0000C46054600F0E4F9013401D0FFF756FA21
:1059D000284600F00BF900BF08B540F23C03C2F2C4
:1059E00000031868FFF7E4FF08B58047FFF7F4FFEE
:1059F00008B540F24003C2F200031868FFF7F4FF55
:105A0000014B0360704700BF48B501080020704794
:105A10000020704700207047034B10B50446036018
:105A2000FFF752FB204610BD48B50108814208B57A
:105A30000DD0406803782A2B07D049680A782A2AB3
:105A400008BF01310EF03EFC08B1002008BD012066
:105A500008BD00BFFFF7EABF034B10B50446036063
:105A6000FFF706FB204610BD98B5010810B50446A7
:105A7000FFF7F2FF2046FFF727FB204610BD00BFCF
:105A80002DE9F04786B00F4619461E4682469146DC
:105A90000E9DDDF84080119CFFF7C8FF034678B1EA
:105AA000002F256084F804901DDBED19A84514BF74
:105AB0004FF001084FF0060884F8068000200FE040
:105AC000454514D0DAF808000F9A03680192009552
:105AD000CDF808800394DC6939464A463346A0472E
